{
  "contractName": "Token",
  "abi": [
    {
      "inputs": [
        {
          "internalType": "string",
          "name": "name",
          "type": "string"
        },
        {
          "internalType": "string",
          "name": "symbol",
          "type": "string"
        }
      ],
      "stateMutability": "nonpayable",
      "type": "constructor"
    },
    {
      "anonymous": false,
      "inputs": [
        {
          "indexed": true,
          "internalType": "address",
          "name": "owner",
          "type": "address"
        },
        {
          "indexed": true,
          "internalType": "address",
          "name": "approved",
          "type": "address"
        },
        {
          "indexed": true,
          "internalType": "uint256",
          "name": "tokenId",
          "type": "uint256"
        }
      ],
      "name": "Approval",
      "type": "event"
    },
    {
      "anonymous": false,
      "inputs": [
        {
          "indexed": true,
          "internalType": "address",
          "name": "owner",
          "type": "address"
        },
        {
          "indexed": true,
          "internalType": "address",
          "name": "operator",
          "type": "address"
        },
        {
          "indexed": false,
          "internalType": "bool",
          "name": "approved",
          "type": "bool"
        }
      ],
      "name": "ApprovalForAll",
      "type": "event"
    },
    {
      "anonymous": false,
      "inputs": [
        {
          "indexed": true,
          "internalType": "address",
          "name": "previousOwner",
          "type": "address"
        },
        {
          "indexed": true,
          "internalType": "address",
          "name": "newOwner",
          "type": "address"
        }
      ],
      "name": "OwnershipTransferred",
      "type": "event"
    },
    {
      "anonymous": false,
      "inputs": [
        {
          "indexed": true,
          "internalType": "address",
          "name": "from",
          "type": "address"
        },
        {
          "indexed": true,
          "internalType": "address",
          "name": "to",
          "type": "address"
        },
        {
          "indexed": true,
          "internalType": "uint256",
          "name": "tokenId",
          "type": "uint256"
        }
      ],
      "name": "Transfer",
      "type": "event"
    },
    {
      "inputs": [
        {
          "internalType": "address",
          "name": "to",
          "type": "address"
        },
        {
          "internalType": "uint256",
          "name": "tokenId",
          "type": "uint256"
        }
      ],
      "name": "approve",
      "outputs": [],
      "stateMutability": "nonpayable",
      "type": "function"
    },
    {
      "inputs": [
        {
          "internalType": "address",
          "name": "owner",
          "type": "address"
        }
      ],
      "name": "balanceOf",
      "outputs": [
        {
          "internalType": "uint256",
          "name": "",
          "type": "uint256"
        }
      ],
      "stateMutability": "view",
      "type": "function",
      "constant": true
    },
    {
      "inputs": [
        {
          "internalType": "uint256",
          "name": "tokenId",
          "type": "uint256"
        }
      ],
      "name": "getApproved",
      "outputs": [
        {
          "internalType": "address",
          "name": "",
          "type": "address"
        }
      ],
      "stateMutability": "view",
      "type": "function",
      "constant": true
    },
    {
      "inputs": [
        {
          "internalType": "address",
          "name": "owner",
          "type": "address"
        },
        {
          "internalType": "address",
          "name": "operator",
          "type": "address"
        }
      ],
      "name": "isApprovedForAll",
      "outputs": [
        {
          "internalType": "bool",
          "name": "",
          "type": "bool"
        }
      ],
      "stateMutability": "view",
      "type": "function",
      "constant": true
    },
    {
      "inputs": [],
      "name": "name",
      "outputs": [
        {
          "internalType": "string",
          "name": "",
          "type": "string"
        }
      ],
      "stateMutability": "view",
      "type": "function",
      "constant": true
    },
    {
      "inputs": [],
      "name": "owner",
      "outputs": [
        {
          "internalType": "address",
          "name": "",
          "type": "address"
        }
      ],
      "stateMutability": "view",
      "type": "function",
      "constant": true
    },
    {
      "inputs": [
        {
          "internalType": "uint256",
          "name": "tokenId",
          "type": "uint256"
        }
      ],
      "name": "ownerOf",
      "outputs": [
        {
          "internalType": "address",
          "name": "",
          "type": "address"
        }
      ],
      "stateMutability": "view",
      "type": "function",
      "constant": true
    },
    {
      "inputs": [],
      "name": "renounceOwnership",
      "outputs": [],
      "stateMutability": "nonpayable",
      "type": "function"
    },
    {
      "inputs": [
        {
          "internalType": "address",
          "name": "from",
          "type": "address"
        },
        {
          "internalType": "address",
          "name": "to",
          "type": "address"
        },
        {
          "internalType": "uint256",
          "name": "tokenId",
          "type": "uint256"
        }
      ],
      "name": "safeTransferFrom",
      "outputs": [],
      "stateMutability": "nonpayable",
      "type": "function"
    },
    {
      "inputs": [
        {
          "internalType": "address",
          "name": "from",
          "type": "address"
        },
        {
          "internalType": "address",
          "name": "to",
          "type": "address"
        },
        {
          "internalType": "uint256",
          "name": "tokenId",
          "type": "uint256"
        },
        {
          "internalType": "bytes",
          "name": "_data",
          "type": "bytes"
        }
      ],
      "name": "safeTransferFrom",
      "outputs": [],
      "stateMutability": "nonpayable",
      "type": "function"
    },
    {
      "inputs": [
        {
          "internalType": "address",
          "name": "operator",
          "type": "address"
        },
        {
          "internalType": "bool",
          "name": "approved",
          "type": "bool"
        }
      ],
      "name": "setApprovalForAll",
      "outputs": [],
      "stateMutability": "nonpayable",
      "type": "function"
    },
    {
      "inputs": [
        {
          "internalType": "bytes4",
          "name": "interfaceId",
          "type": "bytes4"
        }
      ],
      "name": "supportsInterface",
      "outputs": [
        {
          "internalType": "bool",
          "name": "",
          "type": "bool"
        }
      ],
      "stateMutability": "view",
      "type": "function",
      "constant": true
    },
    {
      "inputs": [],
      "name": "symbol",
      "outputs": [
        {
          "internalType": "string",
          "name": "",
          "type": "string"
        }
      ],
      "stateMutability": "view",
      "type": "function",
      "constant": true
    },
    {
      "inputs": [
        {
          "internalType": "uint256",
          "name": "tokenId",
          "type": "uint256"
        }
      ],
      "name": "tokenURI",
      "outputs": [
        {
          "internalType": "string",
          "name": "",
          "type": "string"
        }
      ],
      "stateMutability": "view",
      "type": "function",
      "constant": true
    },
    {
      "inputs": [
        {
          "internalType": "address",
          "name": "from",
          "type": "address"
        },
        {
          "internalType": "address",
          "name": "to",
          "type": "address"
        },
        {
          "internalType": "uint256",
          "name": "tokenId",
          "type": "uint256"
        }
      ],
      "name": "transferFrom",
      "outputs": [],
      "stateMutability": "nonpayable",
      "type": "function"
    },
    {
      "inputs": [
        {
          "internalType": "address",
          "name": "newOwner",
          "type": "address"
        }
      ],
      "name": "transferOwnership",
      "outputs": [],
      "stateMutability": "nonpayable",
      "type": "function"
    },
    {
      "inputs": [
        {
          "internalType": "uint256",
          "name": "tokenId",
          "type": "uint256"
        }
      ],
      "name": "getTokenDetails",
      "outputs": [
        {
          "components": [
            {
              "internalType": "uint8",
              "name": "damage",
              "type": "uint8"
            },
            {
              "internalType": "uint8",
              "name": "magic",
              "type": "uint8"
            },
            {
              "internalType": "uint256",
              "name": "lastMeal",
              "type": "uint256"
            },
            {
              "internalType": "uint256",
              "name": "endurance",
              "type": "uint256"
            }
          ],
          "internalType": "struct Token.Pet",
          "name": "",
          "type": "tuple"
        }
      ],
      "stateMutability": "view",
      "type": "function",
      "constant": true
    },
    {
      "inputs": [
        {
          "internalType": "uint8",
          "name": "damage",
          "type": "uint8"
        },
        {
          "internalType": "uint8",
          "name": "magic",
          "type": "uint8"
        },
        {
          "internalType": "uint256",
          "name": "endurance",
          "type": "uint256"
        }
      ],
      "name": "mint",
      "outputs": [],
      "stateMutability": "nonpayable",
      "type": "function"
    },
    {
      "inputs": [
        {
          "internalType": "uint256",
          "name": "tokenId",
          "type": "uint256"
        }
      ],
      "name": "feed",
      "outputs": [],
      "stateMutability": "nonpayable",
      "type": "function"
    },
    {
      "inputs": [
        {
          "internalType": "address",
          "name": "user",
          "type": "address"
        }
      ],
      "name": "getAllTokensFor",
      "outputs": [
        {
          "internalType": "uint256[]",
          "name": "",
          "type": "uint256[]"
        }
      ],
      "stateMutability": "view",
      "type": "function",
      "constant": true
    }
  ],
  "bytecode": "0x608060405260006007553480156200001657600080fd5b50604051620035cd380380620035cd83398181016040528101906200003c9190620003b5565b818181600090805190602001906200005692919062000168565b5080600190805190602001906200006f92919062000168565b50505062000092620000866200009a60201b60201c565b620000a260201b60201c565b50506200049f565b600033905090565b6000600660009054906101000a900473ffffffffffffffffffffffffffffffffffffffff16905081600660006101000a81548173ffffffffffffffffffffffffffffffffffffffff021916908373ffffffffffffffffffffffffffffffffffffffff1602179055508173ffffffffffffffffffffffffffffffffffffffff168173ffffffffffffffffffffffffffffffffffffffff167f8be0079c531659141344cd1fd0a4f28419497f9722a3daafe3b4186f6b6457e060405160405180910390a35050565b828054620001769062000469565b90600052602060002090601f0160209004810192826200019a5760008555620001e6565b82601f10620001b557805160ff1916838001178555620001e6565b82800160010185558215620001e6579182015b82811115620001e5578251825591602001919060010190620001c8565b5b509050620001f59190620001f9565b5090565b5b8082111562000214576000816000905550600101620001fa565b5090565b6000604051905090565b600080fd5b600080fd5b600080fd5b600080fd5b6000601f19601f8301169050919050565b7f4e487b7100000000000000000000000000000000000000000000000000000000600052604160045260246000fd5b620002818262000236565b810181811067ffffffffffffffff82111715620002a357620002a262000247565b5b80604052505050565b6000620002b862000218565b9050620002c6828262000276565b919050565b600067ffffffffffffffff821115620002e957620002e862000247565b5b620002f48262000236565b9050602081019050919050565b60005b838110156200032157808201518184015260208101905062000304565b8381111562000331576000848401525b50505050565b60006200034e6200034884620002cb565b620002ac565b9050828152602081018484840111156200036d576200036c62000231565b5b6200037a84828562000301565b509392505050565b600082601f8301126200039a57620003996200022c565b5b8151620003ac84826020860162000337565b91505092915050565b60008060408385031215620003cf57620003ce62000222565b5b600083015167ffffffffffffffff811115620003f057620003ef62000227565b5b620003fe8582860162000382565b925050602083015167ffffffffffffffff81111562000422576200042162000227565b5b620004308582860162000382565b9150509250929050565b7f4e487b7100000000000000000000000000000000000000000000000000000000600052602260045260246000fd5b600060028204905060018216806200048257607f821691505b602082108114156200049957620004986200043a565b5b50919050565b61311e80620004af6000396000f3fe608060405234801561001057600080fd5b506004361061012c5760003560e01c80638da5cb5b116100ad578063c87b56dd11610071578063c87b56dd14610341578063e985e9c514610371578063eb22ed32146103a1578063f2fde38b146103bd578063f59dfdfb146103d95761012c565b80638da5cb5b1461029d57806395d89b41146102bb578063a22cb465146102d9578063b88d4fde146102f5578063c1e03728146103115761012c565b806342842e0e116100f457806342842e0e146101e75780636352211e1461020357806370a0823114610233578063715018a61461026357806383434f401461026d5761012c565b806301ffc9a71461013157806306fdde0314610161578063081812fc1461017f578063095ea7b3146101af57806323b872dd146101cb575b600080fd5b61014b60048036038101906101469190611db8565b6103f5565b6040516101589190611e00565b60405180910390f35b6101696104d7565b6040516101769190611eb4565b60405180910390f35b61019960048036038101906101949190611f0c565b610569565b6040516101a69190611f7a565b60405180910390f35b6101c960048036038101906101c49190611fc1565b6105ee565b005b6101e560048036038101906101e09190612001565b610706565b005b61020160048036038101906101fc9190612001565b610766565b005b61021d60048036038101906102189190611f0c565b610786565b60405161022a9190611f7a565b60405180910390f35b61024d60048036038101906102489190612054565b610838565b60405161025a9190612090565b60405180910390f35b61026b6108f0565b005b61028760048036038101906102829190612054565b610978565b6040516102949190612169565b60405180910390f35b6102a5610acb565b6040516102b29190611f7a565b60405180910390f35b6102c3610af5565b6040516102d09190611eb4565b60405180910390f35b6102f360048036038101906102ee91906121b7565b610b87565b005b61030f600480360381019061030a919061232c565b610d08565b005b61032b60048036038101906103269190611f0c565b610d6a565b6040516103389190612420565b60405180910390f35b61035b60048036038101906103569190611f0c565b610de5565b6040516103689190611eb4565b60405180910390f35b61038b6004803603810190610386919061243b565b610e8c565b6040516103989190611e00565b60405180910390f35b6103bb60048036038101906103b691906124a7565b610f20565b005b6103d760048036038101906103d29190612054565b61105a565b005b6103f360048036038101906103ee9190611f0c565b611152565b005b60007f80ac58cd000000000000000000000000000000000000000000000000000000007bffffffffffffffffffffffffffffffffffffffffffffffffffffffff1916827bffffffffffffffffffffffffffffffffffffffffffffffffffffffff191614806104c057507f5b5e139f000000000000000000000000000000000000000000000000000000007bffffffffffffffffffffffffffffffffffffffffffffffffffffffff1916827bffffffffffffffffffffffffffffffffffffffffffffffffffffffff1916145b806104d057506104cf82611195565b5b9050919050565b6060600080546104e690612529565b80601f016020809104026020016040519081016040528092919081815260200182805461051290612529565b801561055f5780601f106105345761010080835404028352916020019161055f565b820191906000526020600020905b81548152906001019060200180831161054257829003601f168201915b5050505050905090565b6000610574826111ff565b6105b3576040517f08c379a00000000000000000000000000000000000000000000000000000000081526004016105aa906125cd565b60405180910390fd5b6004600083815260200190815260200160002060009054906101000a900473ffffffffffffffffffffffffffffffffffffffff169050919050565b60006105f982610786565b90508073ffffffffffffffffffffffffffffffffffffffff168373ffffffffffffffffffffffffffffffffffffffff16141561066a576040517f08c379a00000000000000000000000000000000000000000000000000000000081526004016106619061265f565b60405180910390fd5b8073ffffffffffffffffffffffffffffffffffffffff1661068961126b565b73ffffffffffffffffffffffffffffffffffffffff1614806106b857506106b7816106b261126b565b610e8c565b5b6106f7576040517f08c379a00000000000000000000000000000000000000000000000000000000081526004016106ee906126f1565b60405180910390fd5b6107018383611273565b505050565b61071761071161126b565b8261132c565b610756576040517f08c379a000000000000000000000000000000000000000000000000000000000815260040161074d90612783565b60405180910390fd5b61076183838361140a565b505050565b61078183838360405180602001604052806000815250610d08565b505050565b6000806002600084815260200190815260200160002060009054906101000a900473ffffffffffffffffffffffffffffffffffffffff169050600073ffffffffffffffffffffffffffffffffffffffff168173ffffffffffffffffffffffffffffffffffffffff16141561082f576040517f08c379a000000000000000000000000000000000000000000000000000000000815260040161082690612815565b60405180910390fd5b80915050919050565b60008073ffffffffffffffffffffffffffffffffffffffff168273ffffffffffffffffffffffffffffffffffffffff1614156108a9576040517f08c379a00000000000000000000000000000000000000000000000000000000081526004016108a0906128a7565b60405180910390fd5b600360008373ffffffffffffffffffffffffffffffffffffffff1673ffffffffffffffffffffffffffffffffffffffff168152602001908152602001600020549050919050565b6108f861126b565b73ffffffffffffffffffffffffffffffffffffffff16610916610acb565b73ffffffffffffffffffffffffffffffffffffffff161461096c576040517f08c379a000000000000000000000000000000000000000000000000000000000815260040161096390612913565b60405180910390fd5b6109766000611666565b565b6060600061098583610838565b905060008114156109e257600067ffffffffffffffff8111156109ab576109aa612201565b5b6040519080825280602002602001820160405280156109d95781602001602082028036833780820191505090505b50915050610ac6565b60008167ffffffffffffffff8111156109fe576109fd612201565b5b604051908082528060200260200182016040528015610a2c5781602001602082028036833780820191505090505b509050600060075490506000805b82811015610ac0578673ffffffffffffffffffffffffffffffffffffffff16610a6282610786565b73ffffffffffffffffffffffffffffffffffffffff161415610aad5780848381518110610a9257610a91612933565b5b6020026020010181815250508180610aa990612991565b9250505b8080610ab890612991565b915050610a3a565b50505050505b919050565b6000600660009054906101000a900473ffffffffffffffffffffffffffffffffffffffff16905090565b606060018054610b0490612529565b80601f0160208091040260200160405190810160405280929190818152602001828054610b3090612529565b8015610b7d5780601f10610b5257610100808354040283529160200191610b7d565b820191906000526020600020905b815481529060010190602001808311610b6057829003601f168201915b5050505050905090565b610b8f61126b565b73ffffffffffffffffffffffffffffffffffffffff168273ffffffffffffffffffffffffffffffffffffffff161415610bfd576040517f08c379a0000000000000000000000000000000000000000000000000000000008152600401610bf490612a26565b60405180910390fd5b8060056000610c0a61126b565b73ffffffffffffffffffffffffffffffffffffffff1673ffffffffffffffffffffffffffffffffffffffff16815260200190815260200160002060008473ffffffffffffffffffffffffffffffffffffffff1673ffffffffffffffffffffffffffffffffffffffff16815260200190815260200160002060006101000a81548160ff0219169083151502179055508173ffffffffffffffffffffffffffffffffffffffff16610cb761126b565b73ffffffffffffffffffffffffffffffffffffffff167f17307eab39ab6107e8899845ad3d59bd9653f200f220920489ca2b5937696c3183604051610cfc9190611e00565b60405180910390a35050565b610d19610d1361126b565b8361132c565b610d58576040517f08c379a0000000000000000000000000000000000000000000000000000000008152600401610d4f90612783565b60405180910390fd5b610d648484848461172c565b50505050565b610d72611d1e565b600860008381526020019081526020016000206040518060800160405290816000820160009054906101000a900460ff1660ff1660ff1681526020016000820160019054906101000a900460ff1660ff1660ff168152602001600182015481526020016002820154815250509050919050565b6060610df0826111ff565b610e2f576040517f08c379a0000000000000000000000000000000000000000000000000000000008152600401610e2690612ab8565b60405180910390fd5b6000610e39611788565b90506000815111610e595760405180602001604052806000815250610e84565b80610e638461179f565b604051602001610e74929190612b14565b6040516020818303038152906040525b915050919050565b6000600560008473ffffffffffffffffffffffffffffffffffffffff1673ffffffffffffffffffffffffffffffffffffffff16815260200190815260200160002060008373ffffffffffffffffffffffffffffffffffffffff1673ffffffffffffffffffffffffffffffffffffffff16815260200190815260200160002060009054906101000a900460ff16905092915050565b610f2861126b565b73ffffffffffffffffffffffffffffffffffffffff16610f46610acb565b73ffffffffffffffffffffffffffffffffffffffff1614610f9c576040517f08c379a0000000000000000000000000000000000000000000000000000000008152600401610f9390612913565b60405180910390fd5b60405180608001604052808460ff1681526020018360ff1681526020014281526020018281525060086000600754815260200190815260200160002060008201518160000160006101000a81548160ff021916908360ff16021790555060208201518160000160016101000a81548160ff021916908360ff160217905550604082015181600101556060820151816002015590505061103d33600754611900565b6007600081548092919061105090612991565b9190505550505050565b61106261126b565b73ffffffffffffffffffffffffffffffffffffffff16611080610acb565b73ffffffffffffffffffffffffffffffffffffffff16146110d6576040517f08c379a00000000000000000000000000000000000000000000000000000000081526004016110cd90612913565b60405180910390fd5b600073ffffffffffffffffffffffffffffffffffffffff168173ffffffffffffffffffffffffffffffffffffffff161415611146576040517f08c379a000000000000000000000000000000000000000000000000000000000815260040161113d90612baa565b60405180910390fd5b61114f81611666565b50565b6000600860008381526020019081526020016000209050428160020154826001015461117e9190612bca565b1161118857600080fd5b4281600101819055505050565b60007f01ffc9a7000000000000000000000000000000000000000000000000000000007bffffffffffffffffffffffffffffffffffffffffffffffffffffffff1916827bffffffffffffffffffffffffffffffffffffffffffffffffffffffff1916149050919050565b60008073ffffffffffffffffffffffffffffffffffffffff166002600084815260200190815260200160002060009054906101000a900473ffffffffffffffffffffffffffffffffffffffff1673ffffffffffffffffffffffffffffffffffffffff1614159050919050565b600033905090565b816004600083815260200190815260200160002060006101000a81548173ffffffffffffffffffffffffffffffffffffffff021916908373ffffffffffffffffffffffffffffffffffffffff160217905550808273ffffffffffffffffffffffffffffffffffffffff166112e683610786565b73ffffffffffffffffffffffffffffffffffffffff167f8c5be1e5ebec7d5bd14f71427d1e84f3dd0314c0f7b2291e5b200ac8c7c3b92560405160405180910390a45050565b6000611337826111ff565b611376576040517f08c379a000000000000000000000000000000000000000000000000000000000815260040161136d90612c92565b60405180910390fd5b600061138183610786565b90508073ffffffffffffffffffffffffffffffffffffffff168473ffffffffffffffffffffffffffffffffffffffff1614806113f057508373ffffffffffffffffffffffffffffffffffffffff166113d884610569565b73ffffffffffffffffffffffffffffffffffffffff16145b8061140157506114008185610e8c565b5b91505092915050565b8273ffffffffffffffffffffffffffffffffffffffff1661142a82610786565b73ffffffffffffffffffffffffffffffffffffffff1614611480576040517f08c379a000000000000000000000000000000000000000000000000000000000815260040161147790612d24565b60405180910390fd5b600073ffffffffffffffffffffffffffffffffffffffff168273ffffffffffffffffffffffffffffffffffffffff1614156114f0576040517f08c379a00000000000000000000000000000000000000000000000000000000081526004016114e790612db6565b60405180910390fd5b6114fb83838361191e565b611506600082611273565b6001600360008573ffffffffffffffffffffffffffffffffffffffff1673ffffffffffffffffffffffffffffffffffffffff16815260200190815260200160002060008282546115569190612dd6565b925050819055506001600360008473ffffffffffffffffffffffffffffffffffffffff1673ffffffffffffffffffffffffffffffffffffffff16815260200190815260200160002060008282546115ad9190612bca565b92505081905550816002600083815260200190815260200160002060006101000a81548173ffffffffffffffffffffffffffffffffffffffff021916908373ffffffffffffffffffffffffffffffffffffffff160217905550808273ffffffffffffffffffffffffffffffffffffffff168473ffffffffffffffffffffffffffffffffffffffff167fddf252ad1be2c89b69c2b068fc378daa952ba7f163c4a11628f55a4df523b3ef60405160405180910390a4505050565b6000600660009054906101000a900473ffffffffffffffffffffffffffffffffffffffff16905081600660006101000a81548173ffffffffffffffffffffffffffffffffffffffff021916908373ffffffffffffffffffffffffffffffffffffffff1602179055508173ffffffffffffffffffffffffffffffffffffffff168173ffffffffffffffffffffffffffffffffffffffff167f8be0079c531659141344cd1fd0a4f28419497f9722a3daafe3b4186f6b6457e060405160405180910390a35050565b61173784848461140a565b6117438484848461195a565b611782576040517f08c379a000000000000000000000000000000000000000000000000000000000815260040161177990612e7c565b60405180910390fd5b50505050565b606060405180602001604052806000815250905090565b606060008214156117e7576040518060400160405280600181526020017f300000000000000000000000000000000000000000000000000000000000000081525090506118fb565b600082905060005b6000821461181957808061180290612991565b915050600a826118129190612ecb565b91506117ef565b60008167ffffffffffffffff81111561183557611834612201565b5b6040519080825280601f01601f1916602001820160405280156118675781602001600182028036833780820191505090505b5090505b600085146118f4576001826118809190612dd6565b9150600a8561188f9190612efc565b603061189b9190612bca565b60f81b8183815181106118b1576118b0612933565b5b60200101907effffffffffffffffffffffffffffffffffffffffffffffffffffffffffffff1916908160001a905350600a856118ed9190612ecb565b945061186b565b8093505050505b919050565b61191a828260405180602001604052806000815250611ae2565b5050565b6000600860008381526020019081526020016000209050428160020154826001015461194a9190612bca565b1161195457600080fd5b50505050565b600061197b8473ffffffffffffffffffffffffffffffffffffffff16611b3d565b15611ad5578373ffffffffffffffffffffffffffffffffffffffff1663150b7a026119a461126b565b8786866040518563ffffffff1660e01b81526004016119c69493929190612f82565b6020604051808303816000875af1925050508015611a0257506040513d601f19601f820116820180604052508101906119ff9190612fe3565b60015b611a85573d8060008114611a32576040519150601f19603f3d011682016040523d82523d6000602084013e611a37565b606091505b50600081511415611a7d576040517f08c379a0000000000000000000000000000000000000000000000000000000008152600401611a7490612e7c565b60405180910390fd5b805181602001fd5b63150b7a0260e01b7bffffffffffffffffffffffffffffffffffffffffffffffffffffffff1916817bffffffffffffffffffffffffffffffffffffffffffffffffffffffff191614915050611ada565b600190505b949350505050565b611aec8383611b50565b611af9600084848461195a565b611b38576040517f08c379a0000000000000000000000000000000000000000000000000000000008152600401611b2f90612e7c565b60405180910390fd5b505050565b600080823b905060008111915050919050565b600073ffffffffffffffffffffffffffffffffffffffff168273ffffffffffffffffffffffffffffffffffffffff161415611bc0576040517f08c379a0000000000000000000000000000000000000000000000000000000008152600401611bb79061305c565b60405180910390fd5b611bc9816111ff565b15611c09576040517f08c379a0000000000000000000000000000000000000000000000000000000008152600401611c00906130c8565b60405180910390fd5b611c156000838361191e565b6001600360008473ffffffffffffffffffffffffffffffffffffffff1673ffffffffffffffffffffffffffffffffffffffff1681526020019081526020016000206000828254611c659190612bca565b92505081905550816002600083815260200190815260200160002060006101000a81548173ffffffffffffffffffffffffffffffffffffffff021916908373ffffffffffffffffffffffffffffffffffffffff160217905550808273ffffffffffffffffffffffffffffffffffffffff16600073ffffffffffffffffffffffffffffffffffffffff167fddf252ad1be2c89b69c2b068fc378daa952ba7f163c4a11628f55a4df523b3ef60405160405180910390a45050565b6040518060800160405280600060ff168152602001600060ff16815260200160008152602001600081525090565b6000604051905090565b600080fd5b600080fd5b60007fffffffff0000000000000000000000000000000000000000000000000000000082169050919050565b611d9581611d60565b8114611da057600080fd5b50565b600081359050611db281611d8c565b92915050565b600060208284031215611dce57611dcd611d56565b5b6000611ddc84828501611da3565b91505092915050565b60008115159050919050565b611dfa81611de5565b82525050565b6000602082019050611e156000830184611df1565b92915050565b600081519050919050565b600082825260208201905092915050565b60005b83811015611e55578082015181840152602081019050611e3a565b83811115611e64576000848401525b50505050565b6000601f19601f8301169050919050565b6000611e8682611e1b565b611e908185611e26565b9350611ea0818560208601611e37565b611ea981611e6a565b840191505092915050565b60006020820190508181036000830152611ece8184611e7b565b905092915050565b6000819050919050565b611ee981611ed6565b8114611ef457600080fd5b50565b600081359050611f0681611ee0565b92915050565b600060208284031215611f2257611f21611d56565b5b6000611f3084828501611ef7565b91505092915050565b600073ffffffffffffffffffffffffffffffffffffffff82169050919050565b6000611f6482611f39565b9050919050565b611f7481611f59565b82525050565b6000602082019050611f8f6000830184611f6b565b92915050565b611f9e81611f59565b8114611fa957600080fd5b50565b600081359050611fbb81611f95565b92915050565b60008060408385031215611fd857611fd7611d56565b5b6000611fe685828601611fac565b9250506020611ff785828601611ef7565b9150509250929050565b60008060006060848603121561201a57612019611d56565b5b600061202886828701611fac565b935050602061203986828701611fac565b925050604061204a86828701611ef7565b9150509250925092565b60006020828403121561206a57612069611d56565b5b600061207884828501611fac565b91505092915050565b61208a81611ed6565b82525050565b60006020820190506120a56000830184612081565b92915050565b600081519050919050565b600082825260208201905092915050565b6000819050602082019050919050565b6120e081611ed6565b82525050565b60006120f283836120d7565b60208301905092915050565b6000602082019050919050565b6000612116826120ab565b61212081856120b6565b935061212b836120c7565b8060005b8381101561215c57815161214388826120e6565b975061214e836120fe565b92505060018101905061212f565b5085935050505092915050565b60006020820190508181036000830152612183818461210b565b905092915050565b61219481611de5565b811461219f57600080fd5b50565b6000813590506121b18161218b565b92915050565b600080604083850312156121ce576121cd611d56565b5b60006121dc85828601611fac565b92505060206121ed858286016121a2565b9150509250929050565b600080fd5b600080fd5b7f4e487b7100000000000000000000000000000000000000000000000000000000600052604160045260246000fd5b61223982611e6a565b810181811067ffffffffffffffff8211171561225857612257612201565b5b80604052505050565b600061226b611d4c565b90506122778282612230565b919050565b600067ffffffffffffffff82111561229757612296612201565b5b6122a082611e6a565b9050602081019050919050565b82818337600083830152505050565b60006122cf6122ca8461227c565b612261565b9050828152602081018484840111156122eb576122ea6121fc565b5b6122f68482856122ad565b509392505050565b600082601f830112612313576123126121f7565b5b81356123238482602086016122bc565b91505092915050565b6000806000806080858703121561234657612345611d56565b5b600061235487828801611fac565b945050602061236587828801611fac565b935050604061237687828801611ef7565b925050606085013567ffffffffffffffff81111561239757612396611d5b565b5b6123a3878288016122fe565b91505092959194509250565b600060ff82169050919050565b6123c5816123af565b82525050565b6080820160008201516123e160008501826123bc565b5060208201516123f460208501826123bc565b50604082015161240760408501826120d7565b50606082015161241a60608501826120d7565b50505050565b600060808201905061243560008301846123cb565b92915050565b6000806040838503121561245257612451611d56565b5b600061246085828601611fac565b925050602061247185828601611fac565b9150509250929050565b612484816123af565b811461248f57600080fd5b50565b6000813590506124a18161247b565b92915050565b6000806000606084860312156124c0576124bf611d56565b5b60006124ce86828701612492565b93505060206124df86828701612492565b92505060406124f086828701611ef7565b9150509250925092565b7f4e487b7100000000000000000000000000000000000000000000000000000000600052602260045260246000fd5b6000600282049050600182168061254157607f821691505b60208210811415612555576125546124fa565b5b50919050565b7f4552433732313a20617070726f76656420717565727920666f72206e6f6e657860008201527f697374656e7420746f6b656e0000000000000000000000000000000000000000602082015250565b60006125b7602c83611e26565b91506125c28261255b565b604082019050919050565b600060208201905081810360008301526125e6816125aa565b9050919050565b7f4552433732313a20617070726f76616c20746f2063757272656e74206f776e6560008201527f7200000000000000000000000000000000000000000000000000000000000000602082015250565b6000612649602183611e26565b9150612654826125ed565b604082019050919050565b600060208201905081810360008301526126788161263c565b9050919050565b7f4552433732313a20617070726f76652063616c6c6572206973206e6f74206f7760008201527f6e6572206e6f7220617070726f76656420666f7220616c6c0000000000000000602082015250565b60006126db603883611e26565b91506126e68261267f565b604082019050919050565b6000602082019050818103600083015261270a816126ce565b9050919050565b7f4552433732313a207472616e736665722063616c6c6572206973206e6f74206f60008201527f776e6572206e6f7220617070726f766564000000000000000000000000000000602082015250565b600061276d603183611e26565b915061277882612711565b604082019050919050565b6000602082019050818103600083015261279c81612760565b9050919050565b7f4552433732313a206f776e657220717565727920666f72206e6f6e657869737460008201527f656e7420746f6b656e0000000000000000000000000000000000000000000000602082015250565b60006127ff602983611e26565b915061280a826127a3565b604082019050919050565b6000602082019050818103600083015261282e816127f2565b9050919050565b7f4552433732313a2062616c616e636520717565727920666f7220746865207a6560008201527f726f206164647265737300000000000000000000000000000000000000000000602082015250565b6000612891602a83611e26565b915061289c82612835565b604082019050919050565b600060208201905081810360008301526128c081612884565b9050919050565b7f4f776e61626c653a2063616c6c6572206973206e6f7420746865206f776e6572600082015250565b60006128fd602083611e26565b9150612908826128c7565b602082019050919050565b6000602082019050818103600083015261292c816128f0565b9050919050565b7f4e487b7100000000000000000000000000000000000000000000000000000000600052603260045260246000fd5b7f4e487b7100000000000000000000000000000000000000000000000000000000600052601160045260246000fd5b600061299c82611ed6565b91507fffffffffffffffffffffffffffffffffffffffffffffffffffffffffffffffff8214156129cf576129ce612962565b5b600182019050919050565b7f4552433732313a20617070726f766520746f2063616c6c657200000000000000600082015250565b6000612a10601983611e26565b9150612a1b826129da565b602082019050919050565b60006020820190508181036000830152612a3f81612a03565b9050919050565b7f4552433732314d657461646174613a2055524920717565727920666f72206e6f60008201527f6e6578697374656e7420746f6b656e0000000000000000000000000000000000602082015250565b6000612aa2602f83611e26565b9150612aad82612a46565b604082019050919050565b60006020820190508181036000830152612ad181612a95565b9050919050565b600081905092915050565b6000612aee82611e1b565b612af88185612ad8565b9350612b08818560208601611e37565b80840191505092915050565b6000612b208285612ae3565b9150612b2c8284612ae3565b91508190509392505050565b7f4f776e61626c653a206e6577206f776e657220697320746865207a65726f206160008201527f6464726573730000000000000000000000000000000000000000000000000000602082015250565b6000612b94602683611e26565b9150612b9f82612b38565b604082019050919050565b60006020820190508181036000830152612bc381612b87565b9050919050565b6000612bd582611ed6565b9150612be083611ed6565b9250827fffffffffffffffffffffffffffffffffffffffffffffffffffffffffffffffff03821115612c1557612c14612962565b5b828201905092915050565b7f4552433732313a206f70657261746f7220717565727920666f72206e6f6e657860008201527f697374656e7420746f6b656e0000000000000000000000000000000000000000602082015250565b6000612c7c602c83611e26565b9150612c8782612c20565b604082019050919050565b60006020820190508181036000830152612cab81612c6f565b9050919050565b7f4552433732313a207472616e73666572206f6620746f6b656e2074686174206960008201527f73206e6f74206f776e0000000000000000000000000000000000000000000000602082015250565b6000612d0e602983611e26565b9150612d1982612cb2565b604082019050919050565b60006020820190508181036000830152612d3d81612d01565b9050919050565b7f4552433732313a207472616e7366657220746f20746865207a65726f2061646460008201527f7265737300000000000000000000000000000000000000000000000000000000602082015250565b6000612da0602483611e26565b9150612dab82612d44565b604082019050919050565b60006020820190508181036000830152612dcf81612d93565b9050919050565b6000612de182611ed6565b9150612dec83611ed6565b925082821015612dff57612dfe612962565b5b828203905092915050565b7f4552433732313a207472616e7366657220746f206e6f6e20455243373231526560008201527f63656976657220696d706c656d656e7465720000000000000000000000000000602082015250565b6000612e66603283611e26565b9150612e7182612e0a565b604082019050919050565b60006020820190508181036000830152612e9581612e59565b9050919050565b7f4e487b7100000000000000000000000000000000000000000000000000000000600052601260045260246000fd5b6000612ed682611ed6565b9150612ee183611ed6565b925082612ef157612ef0612e9c565b5b828204905092915050565b6000612f0782611ed6565b9150612f1283611ed6565b925082612f2257612f21612e9c565b5b828206905092915050565b600081519050919050565b600082825260208201905092915050565b6000612f5482612f2d565b612f5e8185612f38565b9350612f6e818560208601611e37565b612f7781611e6a565b840191505092915050565b6000608082019050612f976000830187611f6b565b612fa46020830186611f6b565b612fb16040830185612081565b8181036060830152612fc38184612f49565b905095945050505050565b600081519050612fdd81611d8c565b92915050565b600060208284031215612ff957612ff8611d56565b5b600061300784828501612fce565b91505092915050565b7f4552433732313a206d696e7420746f20746865207a65726f2061646472657373600082015250565b6000613046602083611e26565b915061305182613010565b602082019050919050565b6000602082019050818103600083015261307581613039565b9050919050565b7f4552433732313a20746f6b656e20616c7265616479206d696e74656400000000600082015250565b60006130b2601c83611e26565b91506130bd8261307c565b602082019050919050565b600060208201905081810360008301526130e1816130a5565b905091905056fea264697066735822122033ec6f32d984309098f9aa99790b2d1ea4896610aa88a710586e7c08d335723a64736f6c634300080a0033",
  "immutableReferences": {},
  "source": "pragma solidity 0.8.10;\n\nimport \"../node_modules/@openzeppelin/contracts/token/ERC721/ERC721.sol\";\nimport \"../node_modules/@openzeppelin/contracts/access/Ownable.sol\";\n\ncontract Token is ERC721, Ownable {\n\tstruct Pet {\n\t\tuint8 damage; // 0-255\n\t\tuint8 magic;\n\t\tuint256 lastMeal;\n\t\tuint256 endurance; // 24 hours\n\t}\n\n\tuint256 nextId = 0;\n\n\tmapping(uint256 => Pet) private _tokenDetails;\n\n\tconstructor(string memory name, string memory symbol) ERC721(name, symbol) {\n\t\t\n\t}\n\n\tfunction getTokenDetails(uint256 tokenId) public view returns (Pet memory) {\n\t\treturn _tokenDetails[tokenId];\n\t}\n\n\tfunction mint(uint8 damage, uint8 magic, uint256 endurance) public onlyOwner {\n\t\t_tokenDetails[nextId] = Pet(damage, magic, block.timestamp, endurance);\n\t\t_safeMint(msg.sender, nextId);\n\t\tnextId++;\n\t}\n\n\tfunction feed(uint256 tokenId) public {\n\t\tPet storage pet = _tokenDetails[tokenId];\n\t\trequire(pet.lastMeal + pet.endurance > block.timestamp);\n\t\tpet.lastMeal = block.timestamp;\n\t}\n\n\tfunction getAllTokensFor(address user) public view returns (uint256[] memory) {\n\t\tuint256 tokenCount = balanceOf(user);\n\t\tif(tokenCount == 0) {\n\t\t\treturn new uint256[](0);\n\t\t} else {\n\t\t\tuint[] memory result = new uint256[](tokenCount);\n\t\t\tuint256 totalPets = nextId;\n\t\t\tuint256 resultIndex = 0;\n\t\t\tuint256 i;\n\t\t\tfor(i = 0; i < totalPets; i++) {\n\t\t\t\tif(ownerOf(i) == user) {\n\t\t\t\t\tresult[resultIndex] = i;\n\t\t\t\t\tresultIndex++;\n\t\t\t\t}\n\t\t\t}\n\t\t}\n\t}\n\n\tfunction _beforeTokenTransfer(address from, address to, uint256 tokenId) internal override {\n\t\tPet storage pet = _tokenDetails[tokenId];\n\t\trequire(pet.lastMeal + pet.endurance > block.timestamp); // Pet still alive\n\t}\n}\n",
  "sourcePath": "/Users/douglasdiasleal/Documents/Github/NFT-Game/contracts/Token.sol",
  "compiler": {
    "name": "solc",
    "version": "0.8.10+commit.fc410830.Emscripten.clang"
  },
  "schemaVersion": "3.4.3",
  "updatedAt": "2021-11-29T15:43:03.717Z",
  "networkType": "ethereum",
  "devdoc": {
    "kind": "dev",
    "methods": {
      "approve(address,uint256)": {
        "details": "See {IERC721-approve}."
      },
      "balanceOf(address)": {
        "details": "See {IERC721-balanceOf}."
      },
      "getApproved(uint256)": {
        "details": "See {IERC721-getApproved}."
      },
      "isApprovedForAll(address,address)": {
        "details": "See {IERC721-isApprovedForAll}."
      },
      "name()": {
        "details": "See {IERC721Metadata-name}."
      },
      "owner()": {
        "details": "Returns the address of the current owner."
      },
      "ownerOf(uint256)": {
        "details": "See {IERC721-ownerOf}."
      },
      "renounceOwnership()": {
        "details": "Leaves the contract without owner. It will not be possible to call `onlyOwner` functions anymore. Can only be called by the current owner. NOTE: Renouncing ownership will leave the contract without an owner, thereby removing any functionality that is only available to the owner."
      },
      "safeTransferFrom(address,address,uint256)": {
        "details": "See {IERC721-safeTransferFrom}."
      },
      "safeTransferFrom(address,address,uint256,bytes)": {
        "details": "See {IERC721-safeTransferFrom}."
      },
      "setApprovalForAll(address,bool)": {
        "details": "See {IERC721-setApprovalForAll}."
      },
      "supportsInterface(bytes4)": {
        "details": "See {IERC165-supportsInterface}."
      },
      "symbol()": {
        "details": "See {IERC721Metadata-symbol}."
      },
      "tokenURI(uint256)": {
        "details": "See {IERC721Metadata-tokenURI}."
      },
      "transferFrom(address,address,uint256)": {
        "details": "See {IERC721-transferFrom}."
      },
      "transferOwnership(address)": {
        "details": "Transfers ownership of the contract to a new account (`newOwner`). Can only be called by the current owner."
      }
    },
    "version": 1
  },
  "userdoc": {
    "kind": "user",
    "methods": {},
    "version": 1
  }
}